{
  "_format": "hh-sol-artifact-1",
  "contractName": "RPSGame",
  "sourceName": "contracts/RPSGame.sol",
  "abi": [
    {
      "inputs": [
        {
          "internalType": "uint256",
          "name": "_betAmount",
          "type": "uint256"
        },
        {
          "internalType": "address",
          "name": "_player",
          "type": "address"
        },
        {
          "internalType": "address",
          "name": "_opponent",
          "type": "address"
        }
      ],
      "stateMutability": "payable",
      "type": "constructor"
    },
    {
      "anonymous": false,
      "inputs": [
        {
          "indexed": true,
          "internalType": "address",
          "name": "depositor",
          "type": "address"
        }
      ],
      "name": "Deposit",
      "type": "event"
    },
    {
      "anonymous": false,
      "inputs": [],
      "name": "GameComplete",
      "type": "event"
    },
    {
      "anonymous": false,
      "inputs": [
        {
          "indexed": false,
          "internalType": "enum RPSGame.GameStage",
          "name": "gameStage",
          "type": "uint8"
        }
      ],
      "name": "GameStageChanged",
      "type": "event"
    },
    {
      "anonymous": false,
      "inputs": [],
      "name": "ResetGame",
      "type": "event"
    },
    {
      "anonymous": false,
      "inputs": [
        {
          "indexed": true,
          "internalType": "address",
          "name": "player",
          "type": "address"
        }
      ],
      "name": "RevealMove",
      "type": "event"
    },
    {
      "anonymous": false,
      "inputs": [
        {
          "indexed": true,
          "internalType": "address",
          "name": "player",
          "type": "address"
        }
      ],
      "name": "SubmitMove",
      "type": "event"
    },
    {
      "anonymous": false,
      "inputs": [
        {
          "indexed": true,
          "internalType": "address",
          "name": "_winner",
          "type": "address"
        }
      ],
      "name": "Winner",
      "type": "event"
    },
    {
      "anonymous": false,
      "inputs": [
        {
          "indexed": true,
          "internalType": "address",
          "name": "player",
          "type": "address"
        },
        {
          "indexed": false,
          "internalType": "uint256",
          "name": "amount",
          "type": "uint256"
        }
      ],
      "name": "Withdraw",
      "type": "event"
    },
    {
      "inputs": [],
      "name": "betAmount",
      "outputs": [
        {
          "internalType": "uint256",
          "name": "",
          "type": "uint256"
        }
      ],
      "stateMutability": "view",
      "type": "function"
    },
    {
      "inputs": [],
      "name": "gameStage",
      "outputs": [
        {
          "internalType": "enum RPSGame.GameStage",
          "name": "",
          "type": "uint8"
        }
      ],
      "stateMutability": "view",
      "type": "function"
    },
    {
      "inputs": [
        {
          "internalType": "address",
          "name": "_player",
          "type": "address"
        }
      ],
      "name": "getPlayer",
      "outputs": [
        {
          "components": [
            {
              "internalType": "enum RPSGame.Move",
              "name": "move",
              "type": "uint8"
            },
            {
              "internalType": "bytes32",
              "name": "hashedMove",
              "type": "bytes32"
            },
            {
              "internalType": "uint256",
              "name": "balance",
              "type": "uint256"
            },
            {
              "internalType": "address",
              "name": "addr",
              "type": "address"
            },
            {
              "internalType": "bool",
              "name": "submitted",
              "type": "bool"
            },
            {
              "internalType": "bool",
              "name": "revealed",
              "type": "bool"
            }
          ],
          "internalType": "struct RPSGame.Player",
          "name": "",
          "type": "tuple"
        }
      ],
      "stateMutability": "view",
      "type": "function"
    },
    {
      "inputs": [],
      "name": "playerA",
      "outputs": [
        {
          "internalType": "enum RPSGame.Move",
          "name": "move",
          "type": "uint8"
        },
        {
          "internalType": "bytes32",
          "name": "hashedMove",
          "type": "bytes32"
        },
        {
          "internalType": "uint256",
          "name": "balance",
          "type": "uint256"
        },
        {
          "internalType": "address",
          "name": "addr",
          "type": "address"
        },
        {
          "internalType": "bool",
          "name": "submitted",
          "type": "bool"
        },
        {
          "internalType": "bool",
          "name": "revealed",
          "type": "bool"
        }
      ],
      "stateMutability": "view",
      "type": "function"
    },
    {
      "inputs": [],
      "name": "playerB",
      "outputs": [
        {
          "internalType": "enum RPSGame.Move",
          "name": "move",
          "type": "uint8"
        },
        {
          "internalType": "bytes32",
          "name": "hashedMove",
          "type": "bytes32"
        },
        {
          "internalType": "uint256",
          "name": "balance",
          "type": "uint256"
        },
        {
          "internalType": "address",
          "name": "addr",
          "type": "address"
        },
        {
          "internalType": "bool",
          "name": "submitted",
          "type": "bool"
        },
        {
          "internalType": "bool",
          "name": "revealed",
          "type": "bool"
        }
      ],
      "stateMutability": "view",
      "type": "function"
    },
    {
      "inputs": [],
      "name": "resetGame",
      "outputs": [],
      "stateMutability": "nonpayable",
      "type": "function"
    },
    {
      "inputs": [
        {
          "internalType": "uint8",
          "name": "_move",
          "type": "uint8"
        },
        {
          "internalType": "bytes32",
          "name": "_salt",
          "type": "bytes32"
        }
      ],
      "name": "revealMove",
      "outputs": [],
      "stateMutability": "nonpayable",
      "type": "function"
    },
    {
      "inputs": [
        {
          "internalType": "bytes32",
          "name": "_hashedMove",
          "type": "bytes32"
        }
      ],
      "name": "submitMove",
      "outputs": [],
      "stateMutability": "payable",
      "type": "function"
    },
    {
      "inputs": [],
      "name": "winner",
      "outputs": [
        {
          "internalType": "address",
          "name": "",
          "type": "address"
        }
      ],
      "stateMutability": "view",
      "type": "function"
    },
    {
      "inputs": [],
      "name": "withdrawFund",
      "outputs": [],
      "stateMutability": "nonpayable",
      "type": "function"
    }
  ],
  "bytecode": "0x6080604052604051611216380380611216833981016040819052610022916100b0565b806001600160a01b0316826001600160a01b0316141561005d5760405162461bcd60e51b8152600401610054906100eb565b60405180910390fd5b600892909255600380546001600160a01b039283166001600160a01b03199182161790915560078054929093169116179055610120565b80516001600160a01b03811681146100ab57600080fd5b919050565b6000806000606084860312156100c4578283fd5b835192506100d460208501610094565b91506100e260408501610094565b90509250925092565b6020808252818101527f596f752063616e6e6f7420706c617920616761696e737420796f757273656c66604082015260600190565b6110e78061012f6000396000f3fe6080604052600436106100815760003560e01c806311bb1537146100865780632932a4c8146100b657806350c5685b146100cb5780635c12cd4b146100ed578063a285c54a1461011a578063a8f7d4421461012f578063bb4722191461014f578063d24257c014610164578063dfbf53ae14610186578063e07fa3c1146101a8575b600080fd5b34801561009257600080fd5b5061009b6101bd565b6040516100ad96959493929190610cd8565b60405180910390f35b6100c96100c4366004610c4c565b6101f0565b005b3480156100d757600080fd5b506100e06103ce565b6040516100ad9190610cc5565b3480156100f957600080fd5b5061010d610108366004610c1e565b6103d7565b6040516100ad9190610fed565b34801561012657600080fd5b5061009b6104d4565b34801561013b57600080fd5b506100c961014a366004610c64565b610507565b34801561015b57600080fd5b506100c96106fd565b34801561017057600080fd5b5061017961078e565b6040516100ad9190611045565b34801561019257600080fd5b5061019b610794565b6040516100ad9190610cb1565b3480156101b457600080fd5b506100c96107a8565b60045460055460065460075460ff938416936001600160a01b03821691600160a01b8104821691600160a81b9091041686565b6003546001600160a01b031633148061021357506007546001600160a01b031633145b6102385760405162461bcd60e51b815260040161022f90610f21565b60405180910390fd5b600060095460ff16600381111561025f57634e487b7160e01b600052602160045260246000fd5b1461027c5760405162461bcd60e51b815260040161022f90610f56565b6003546000906001600160a01b0316331461029857600461029b565b60005b6003810154909150600160a01b900460ff16156102ca5760405162461bcd60e51b815260040161022f90610dde565b348160020160008282546102de919061104e565b9091555050600854600282015410156103095760405162461bcd60e51b815260040161022f90610e77565b6001810182905560038101805460ff60a01b1916600160a01b17908190556040516001600160a01b03909116907fac7c6016acea60f1964e343e2b22ae9e5b68968d1584a0c06171cb473af6607890600090a2600354600160a01b900460ff16801561037e5750600754600160a01b900460ff165b156103ca576009805460ff191660019081179091556040517f822057341a67f757f228faa0e81e193456f287ce1fab94eea8422865716796ba916103c191610cc5565b60405180910390a15b5050565b60095460ff1681565b6103df610be7565b6003546001600160a01b038381169116141561049c576040805160c0810190915260008054829060ff16600381111561042857634e487b7160e01b600052602160045260246000fd5b600381111561044757634e487b7160e01b600052602160045260246000fd5b815260018201546020820152600282015460408201526003909101546001600160a01b038116606083015260ff600160a01b8204811615156080840152600160a81b90910416151560a09091015290506104cf565b6040805160c0810190915260048054829060ff16600381111561042857634e487b7160e01b600052602160045260246000fd5b919050565b60005460015460025460035460ff938416936001600160a01b03821691600160a01b8104821691600160a81b9091041686565b6003546001600160a01b031633148061052a57506007546001600160a01b031633145b6105465760405162461bcd60e51b815260040161022f90610f21565b600160095460ff16600381111561056d57634e487b7160e01b600052602160045260246000fd5b1461058a5760405162461bcd60e51b815260040161022f90610d8c565b6003546000906001600160a01b031633146105a65760046105a9565b60005b9050600083836040516020016105c0929190610c94565b6040516020818303038152906040528051906020012090508160030160159054906101000a900460ff16156106075760405162461bcd60e51b815260040161022f90610ea7565b8160010154811461062a5760405162461bcd60e51b815260040161022f90610d1b565b8360ff16600381111561064d57634e487b7160e01b600052602160045260246000fd5b8254839060ff1916600183600381111561067757634e487b7160e01b600052602160045260246000fd5b021790555060038201805460ff60a81b1916600160a81b17908190556040516001600160a01b03909116907f5b28e501a1ff0e8e303a6fb5b8fef018dab5fb5fbd44212d19b777f0a0335d2090600090a2600354600160a81b900460ff1680156106ea5750600754600160a81b900460ff165b156106f7576106f7610907565b50505050565b600360095460ff16600381111561072457634e487b7160e01b600052602160045260246000fd5b1461072e57600080fd5b6000805460ff1990811682556003805461ffff60a01b1990811690915560048054831690556007805490911690556009805490911690556040517fc41db7bf93b2ffacecac5d21bb880bf7435f8e756b583a2434d667ebd52516d69190a1565b60085481565b60095461010090046001600160a01b031681565b6003546001600160a01b03163314806107cb57506007546001600160a01b031633145b6107e75760405162461bcd60e51b815260040161022f90610f21565b600160095460ff16600381111561080e57634e487b7160e01b600052602160045260246000fd5b141561082c5760405162461bcd60e51b815260040161022f90610eea565b6003546000906001600160a01b0316331461084857600461084b565b60005b905060008160020154116108715760405162461bcd60e51b815260040161022f90610e2a565b600281015460038201546040516001600160a01b039091169082156108fc029083906000818181858888f193505050501580156108b2573d6000803e3d6000fd5b506000600283015560038201546040516001600160a01b03909116907f884edad9ce6fa2440d8a54cc123490eb96d2768479d49ff9c7366125a9424364906108fb908490611045565b60405180910390a25050565b600354600160a01b900460ff1680156109295750600754600160a01b900460ff165b6109455760405162461bcd60e51b815260040161022f90610f9f565b600061094f6109c8565b90506001600160a01b038116156109b85760098054610100600160a81b0319166101006001600160a01b038416908102919091179091556040517f745c90b656b4aafe296c8ca35aeacfe56cb96c90e1d320e5da643fff1051b6c090600090a26109b881610b5f565b506009805460ff19166003179055565b60045460009060ff1660038111156109f057634e487b7160e01b600052602160045260246000fd5b60005460ff166003811115610a1557634e487b7160e01b600052602160045260246000fd5b1415610a2357506000610b5c565b600160005460ff166003811115610a4a57634e487b7160e01b600052602160045260246000fd5b148015610a7b5750600360045460ff166003811115610a7957634e487b7160e01b600052602160045260246000fd5b145b80610ad95750600260005460ff166003811115610aa857634e487b7160e01b600052602160045260246000fd5b148015610ad95750600160045460ff166003811115610ad757634e487b7160e01b600052602160045260246000fd5b145b80610b375750600360005460ff166003811115610b0657634e487b7160e01b600052602160045260246000fd5b148015610b375750600260045460ff166003811115610b3557634e487b7160e01b600052602160045260246000fd5b145b15610b4e57506003546001600160a01b0316610b5c565b506007546001600160a01b03165b90565b6003546001600160a01b0382811691161415610baf5760085460028054600090610b8a90849061104e565b909155505060085460068054600090610ba4908490611066565b90915550610be49050565b60085460068054600090610bc490849061104e565b909155505060085460028054600090610bde908490611066565b90915550505b50565b6040805160c08101909152806000815260006020820181905260408201819052606082018190526080820181905260a09091015290565b600060208284031215610c2f578081fd5b81356001600160a01b0381168114610c45578182fd5b9392505050565b600060208284031215610c5d578081fd5b5035919050565b60008060408385031215610c76578081fd5b823560ff81168114610c86578182fd5b946020939093013593505050565b60f89290921b6001600160f81b0319168252600182015260210190565b6001600160a01b0391909116815260200190565b60208101610cd283611093565b91905290565b60c08101610ce588611093565b968152602081019590955260408501939093526001600160a01b0391909116606084015215156080830152151560a09091015290565b6020808252604b908201527f52505347616d653a2045697468657220796f75722073616c74206f72206d6f7660408201527f65206973206e6f742073616d6520617320796f7572207375626d69747465642060608201526a686173686564206d6f766560a81b608082015260a00190565b60208082526032908201527f52505347616d653a20626f746820706c61796572732068617665206e6f7420736040820152713ab136b4ba3a32b21036b7bb32903cb2ba1760711b606082015260800190565b6020808252602c908201527f52505347616d653a20796f75206861766520616c7265616479207375626d697460408201526b74656420746865206d6f766560a01b606082015260800190565b6020808252602d908201527f52505347616d653a20596f7520646f6e2774206861766520616e797468696e6760408201526c20746f2077697468647261772160981b606082015260800190565b602080825260169082015275149414d1d85b594e88105919081b5bdc9948199d5b9960521b604082015260600190565b60208082526023908201527f596f75206861766520616c72656164792072657665616c656420796f7572206d6040820152626f766560e81b606082015260800190565b6020808252601c908201527f52505347616d653a2047616d6520756e6465722070726f677265737300000000604082015260600190565b6020808252601b908201527a292829a3b0b6b29d102737ba1030903b30b634b210383630bcb2b960291b604082015260600190565b60208082526029908201527f52505347616d653a2047616d65206973206e6f74206f70656e20617420746865604082015268081b5bdd995b595b9d60ba1b606082015260800190565b6020808252602e908201527f52505347616d653a20506c61796572732068617665206e6f74207375626d697460408201526d746564207468656972206d6f766560901b606082015260800190565b815160c0820190610ffd81611093565b80835250602083015160208301526040830151604083015260018060a01b03606084015116606083015260808301511515608083015260a0830151151560a083015292915050565b90815260200190565b600082198211156110615761106161107d565b500190565b6000828210156110785761107861107d565b500390565b634e487b7160e01b600052601160045260246000fd5b60048110610be457634e487b7160e01b600052602160045260246000fdfea2646970667358221220ac381e7b0fe6b832101e3b63d5d7ce3219e4202c794335bc1985c30622eb31d464736f6c63430008000033",
  "linkReferences": {},
  "deployedLinkReferences": {}
}